:100000000C9408020C9425020C9425020C944420B4
:100010000C9425020C9425020C9425020C942502C4
:100020000C9425020C9425020C94361A0C94F219A7
:100030000C94321B0C9425020C9425020C9425027E
:100040000C9425020C9425020C9425020C94250294
:100050000C9425020C940E1B0C9425020C94250282
:100060000C9425020C9425020C9425020C94250274
:100070000C9425020C9425020C9425020C94250264
:100080000C9425020C9425020C9425020C94250254
:100090000C9425020C9425020C9425020C94250244
:1000A0000C9425020C9425020C94250205010902EA
:1000B000A10185020901A1000509190129081500FE
:1000C0002501950875018102050109300931158165
:1000D000257F95027508810609381581257F9501D0
:1000E00075088106050C0A38021581257F95017572
:1000F000088106C0C005010980A101850319012AF4
:10010000B700150126B700950175108100C0050CD8
:100110000901A101850419012AA002150126A002E6
:10012000950175108100C00660FF0961A101096297
:10013000150026FF00952075088102096315002629
:10014000FF00952075089102C005010906A101056F
:100150000719E029E7150025019508750181029529
:1001600001750881010507190029FF150026FF0008
:100170009506750881000508190129059505750181
:100180009102950175039101C0000000000000007C
:10019000000000000000000000000000000000005F
:1001A000000000000000000000000000007E0F00C2
:1001B000D4FFFFFFC700000078000000000000002F
:1001C000002A2B28000000000000000000000000B2
:1001D0000000000029000000002C1E3420212224F1
:1001E000342627252E362D3738271E1F202122237F
:1001F0002425263333362E37381F04050607080911
:100200000A0B0C0D0E0F10111213141516171819D6
:100210001A1B1C1D2F3130232D3504050607080934
:100220000A0B0C0D0E0F10111213141516171819B6
:100230001A1B1C1D2F3130354C14001A00080015F4
:1002400000170004611600070009000A001D621B68
:100250000006001900050035612A41000000000079
:10026000001C0018000C00120013000B000D000E03
:10027000000F003300110010003600370038722CD8
:10028000422B680000000000001E001F002000211B
:10029000002200165C4A004E004B004D0001000198
:1002A000000100F400F50001000100000000000062
:1002B0000023002400250026002700500051005292
:1002C000004F003400F200F100F000F300280001BC
:1002D0000001000000000000003A003B003C003D2F
:1002E000003E002B0001000100010001000100019F
:1002F00000010001000100010001000000000000F9
:10030000003F0040004100420043002D002E002F1E
:1003100000300031022D022E0201000100005C01BC
:1003200000010000000000000001000100010001C8
:1003300000010001000100010001000100010001B5
:1003400000010001000100010001000000000000A8
:100350000001000100010001000100010001000195
:100360000001000100010001000100010001000185
:1003700000010000000000000009025B0003010012
:10038000A0FA090400000103010100092111010084
:100390000122400007058103080001090401000251
:1003A000030000000921110100012222000705823B
:1003B00003200001070503032000010904020001D6
:1003C00003000000092111010001227B00070584C0
:1003D000032000011201000200000008ABC23939FD
:1003E0000100010200011A0346006500720072005C
:1003F00069007300200073007700650065007000DD
:1004000000000803440050004200000004030904F7
:1004100011241FBECFEFDAE0DEBFCDBF11E0A0E0B8
:10042000B1E0E6EDF4E402C005900D92A239B10707
:10043000D9F722E0A2E9B1E001C01D92A137B207CD
:10044000E1F70E94591B0C9425220C940000FC013A
:10045000AC014C5F5F4F8FEF91E32191822728E041
:1004600030E087FF09C0880F892721503109C9F77B
:10047000E417F50791F70895880FF7CFE8EDF0E05E
:1004800080818E7F80831092E2001092DA001092B9
:10049000E100A0EEB0E08C9181608C9380818F7739
:1004A000808319BCA7EDB0E08C918E7F8C93808106
:1004B0008F7E80831092560208952091E40030913F
:1004C000E50095E6A9012091EC00822F817020FFC4
:1004D00006C08091E80080FF06C080E0089520916A
:1004E000E80022FD1AC080916302882389F08530DC
:1004F00089F08091EB0085FD0FC02091E4003091E0
:10050000E50042175307F9F29150E1F684E00895AF
:1005100082E0089583E0089581E00895EF92FF92CC
:100520000F931F93CF937C018B010E945D02C82F14
:10053000811117C08091E80085FD0BC08091E80013
:100540008E778093E8000E945D02882399F3C82F7C
:1005500008C0F70181917F018093F10001501109DA
:1005600049F78C2FCF911F910F91FF90EF90089535
:100570008091650287FF13C08091E80082FF06C06A
:100580008091E8008B778093E80004C0809163023B
:100590008111F2CF0895809163028823D9F380916D
:1005A000E80080FFF8CF8091E8008E77ECCF982F9D
:1005B0009093E900242F762F50E0891731F0709145
:1005C000EC002091ED005091F00021FD07C09F5FED
:1005D000973071F78093E90081E008953091EB0046
:1005E0003E7F3093EB003091ED003D7F3093ED0086
:1005F0003091EB0031603093EB007093EC0020936E
:10060000ED005093F0002091EE0027FDE0CF80E058
:100610000895B0E0A0E0EFE0F3E00C946B21C8EDAA
:10062000D0E088818F7E8883E7EDF0E08081816073
:10063000808384E082BF81E08093560288818E7F30
:10064000888302EE10E0F80110821092DA0081EE49
:10065000C82ED12CF601108288818F7788838881FB
:100660008068888388818F7D888319BC109263029B
:1006700010926402109262021092610290EEE92ED2
:10068000F12CF70180818B7F808388818160888352
:1006900042E060E080E00E94D702F60180818E7F18
:1006A0008083F8018081816080838081886080837D
:1006B000F70180818E7F8083888180618883CDB7B8
:1006C000DEB7E8E00C948721FC01CB0120916B029E
:1006D00030916C022617370790F0009729F420918B
:1006E000E8002E772093E80040E0009751F4411194
:1006F00008C08091E80082FF31C080E00895C90100
:10070000F3CF209163022223A9F12530A9F1209192
:10071000E80023FD2DC02091E80022FDEACF2091C2
:10072000E80020FFE2CF3091F3002091F200009723
:1007300019F02830310558F041E02830310509F032
:1007400040E02091E8002E772093E800CECF419141
:100750004093F10001972F5F3F4FE9CF80916302F3
:10076000882341F0853041F08091E80083FFC1CFBC
:1007700081E0089582E0089583E0089508958091CE
:100780005802089587E797E790930108809300083F
:1007900088E19AE00FB6F894A895809360000FBEA8
:1007A00090936000FFCF9C014FB7F89480914F0267
:1007B00090915002A0915102B09152024FBF821B02
:1007C000930B0895A4E0B0E0E8EEF3E00C947121FF
:1007D0008FB7F89420914F0230915002409151020E
:1007E0005091520229833A834B835C838FBF698186
:1007F0007A818B819C812496E2E00C948D212FB725
:10080000F89480914F0290915002A0915102B091C2
:1008100052022FBF08959C01FC0132968FEF90E0A9
:100820004191461751F08F3F19F4411101C0892FB2
:100830009F5F9630A9F78F3F09F40895280F311D67
:1008400087FD3A95F9016283089520914C02309119
:100850004D022817390771F090934D0280934C0296
:10086000E0914A02F0914B02309721F00084F1852B
:10087000E02D0995089520914802309149022817EA
:10088000390771F09093490280934802E0914A023F
:10089000F0914B02309721F00680F781E02D099509
:1008A00008950E94FF032091440230914502232BBA
:1008B00021F08093400290934102209146023091B2
:1008C0004702232B21F080933E0290933F02E09158
:1008D0004A02F0914B02309749F082E08093420245
:1008E0000480F581E02D82E492E00995089540911D
:1008F0004402803F59F48091450287FF0DC0109259
:10090000450241110BC010923C0208C0813F81F4A6
:100910008091450218169CF3442381F08091460291
:1009200090914702892B09F05AC010923B0208951A
:10093000823F49F447FFF0CF109244028091450274
:100940008111ECCFE0CF833F19F41416ACF3E4CF60
:1009500090914602893F29F41916F4F61092460246
:10096000DBCF8A3F19F497FFD7CFF8CF909147029A
:100970008B3F29F497FFD0CF10924702CDCF8C3F09
:1009800019F41916CCF3C8CF9CE0980F953090F469
:10099000845F990B21E030E0B90102C0660F771F38
:1009A0008A95E2F7CB018095909143028923809349
:1009B0004302B2CF8D3F31F480913D028E7F809310
:1009C0003D02AACF8E3F21F480913D028D7FF7CF6B
:1009D0008F3F09F0A1CF80913D028B7FF0CF08952A
:1009E00080913D0280FD16C081FD16C082FD16C0BB
:1009F00080913B028823A1F0883280F428E0829F16
:100A0000C001112468E270E00E949821862F672BB4
:100A100039F0089582E0089584E0089588E008950B
:100A200081E0089580913D0280FD14C081FD14C0D5
:100A300082FD16C080913C02882381F08E3180F4C3
:100A400020E5829FC00111246EE170E00E94982190
:100A5000862F089584E1089588E2089588E0089536
:100A600080E50895803F31F40E94120581958093BE
:100A700045020895813F19F40E941205F8CF823F84
:100A800031F40E9412058195809344020895833FBA
:100A900019F40E941205F8CF893F29F40E94F0044E
:100AA0008093460208958A3F21F40E94F0048195C4
:100AB000F7CF8B3F31F40E94F00481958093470279
:100AC00008958C3F19F40E94F004F8CF9CE0980F31
:100AD000953070F4845F990B21E030E001C0220F63
:100AE0008A95EAF780914302822B8093430208950E
:100AF0008D3F31F480913D02816080933D020895E5
:100B00008E3F21F480913D028260F7CF8F3FB9F78D
:100B100080913D028460F1CF80E00895909123029E
:100B200092FF06C0282F28712830F9F4877F84604F
:100B300093FF06C0282F28712831F1F4877E846145
:100B40002091240220FF06C0382F38713830D9F4A4
:100B5000877F816021FF06C0282F28712831D1F4BA
:100B6000877E816194FD877E0895282F247124302B
:100B7000F9F68B7F8860DCCF282F2471243101F7B0
:100B80008B7E8861DDCF382F3171313019F78E7F40
:100B90008860E0CF282F2171213121F78E7E886176
:100BA000E1CFCF93DF93EC01803E910509F460C063
:100BB00050F58133910509F4A6C090F4893291056E
:100BC00009F49AC08A9709F4A5C0C130D10509F487
:100BD00062C0CE010497813A910508F055C05BC010
:100BE00089339105F1F182389105D9F1C59709F45E
:100BF0007CC0C83AD10508F094C0C53AD10528F3A5
:100C0000A497D06448C0843E910509F453C068F4A9
:100C1000823E9105E1F1833E910509F440C0CE0189
:100C2000805E9109089780F536C0863E910509F4EB
:100C30004CC0873E910509F44DC0811522E592070D
:100C400008F0AAC0811531E5930708F0FAC08F3F7C
:100C5000910511F008F074C0803F910550F2D06505
:100C60001AC0809123028370B1F0C0EED0E013C0AF
:100C70008091230280FD12C19091240290FF0BC04D
:100C8000C3EED0E084FF07C0D0E0C0E004C0809194
:100C9000230282FDF5CFCE01DF91CF91089580919F
:100CA000230282FDFEC09091240290FDDECF84FFDE
:100CB000F2CFEACF8091240281FFEDCF8091230211
:100CC000C7EED0E084FDE0CFE6CF8091230283FD24
:100CD000F7CFE1CF8091230283FDE6C090912402FB
:100CE00091FFE5CFC4EED0E0D6CF8091230285FFFF
:100CF000D2CFC9E2D0E0CFCF8091230285FFCBCF06
:100D0000C5E3D0E0C8CF8091230286FFC4CFCAE2FA
:100D1000D0E0C1CF8091230286FFBDCFC1E3D0E0F8
:100D2000BACFCF3BD10508F07ACFC85AD0E0CC0F6C
:100D3000DD1FCE5ADE4F0990D881C02DD464ABCFD1
:100D4000811540E5940760F4C11580E4D80708F0E8
:100D500075C0CE019A9581159F4108F49CCF94CF20
:100D6000F4E096958795FA95E1F783702C2F2695F8
:100D70002695237040E2249F90011124382B8C2F5C
:100D80008370C1E0D0E002C0CC0FDD1F8A95E2F78E
:100D9000C22BD32BDC687FCFC11586E5D80730F591
:100DA000C11595E5D90708F060C0C11524E5D20743
:100DB000C0F49C2F969596959E0123703327C115FC
:100DC000D34508F043C0C1E0D0E002C0CC0FDD1F26
:100DD0002A95E2F720E2929FC0011124C82BD92B5B
:100DE000D9CFDC2FCC27C46FD06A55CFC1153AE5D7
:100DF000D30788F4C11549E5D40708F041C0CE01F6
:100E000098558F3F910511F008F03ECFDC2FCC278D
:100E1000C06FD06A40CFCE0190568115904208F045
:100E200033CF8D2F8F710E948E0590E0982F8827E9
:100E300088279F719C012C2BE90120C0DF70D06AAC
:100E40002ACFD82FCC27C16FD06A25CFC1E0D0E000
:100E500002C0CC0FDD1F2A95E2F730E2939FC0015C
:100E60001124C82BD92BDA6816CF8C2F0E948E053F
:100E7000C82FD0E0DC2FCC27CC27DF71D0620BCF7E
:100E80008C2F8F700E948E0534E0D695C7953A95C9
:100E9000E1F7CF70DC2FC82FD069FDCEC9E3D0E0D9
:100EA000FACEC2EED0E0F7CEC6EED0E0F4CE80911E
:100EB000F20181111092F2010895982F909580917E
:100EC000F10189238093F10108958091E6019091C9
:100ED000B501981301C008958F5F8770FACF292F4D
:100EE000983078F5853068F590E035E0239F800DE7
:100EF000911D1124682F677023E0969587952A9598
:100F0000E1F7FC01EE0FFF1FE80FF91FE056FE4F5F
:100F100050E040E080E0219130E0062E02C036959E
:100F200027950A94E2F721703327042E01C0220F7F
:100F30000A94EAF7822B4F5F5F4F4330510559F710
:100F4000089580E00895292F983090F5853080F538
:100F500090E035E0239F800D911D1124282F2770EC
:100F600041E001C0440F2A95EAF723E09695879562
:100F70002A95E1F7FC01EE0FFF1FE80FF91FE0567D
:100F8000FE4F90E080E070E05191DF0111979B01EE
:100F9000082E02C0369527950A94E2F72170219514
:100FA0002527242325272C9301968330910561F76B
:100FB0000895809353027093550260935402809178
:100FC00063028430F9F48093E9008FEF9091E80098
:100FD000815095FD06C095ED9A95F1F700008111BD
:100FE000F5CF8091E80085FF0DC050E040E063E060
:100FF00070E083E592E00E948E028091E8008E7797
:101000008093E8000895BC0184E00E94D907089508
:10101000BC0183E00E94D907089524E02093E900F1
:101020002FEF3091E800215035FD06C035ED3A959F
:10103000F1F700002111F5CF2091E80025FF0BC04A
:1010400050E040E066E070E00E948E028091E8008F
:101050008E778093E8000895CF93DF93D82FC92F20
:1010600081E08093E9008FEF9091E800815095FD39
:1010700006C095ED9A95F1F700008111F5CF8091AA
:10108000E80085FF16C050E040E068E070E08D2F7A
:101090009C2F0E948E028091E8008E778093E8005A
:1010A00088E0ED2FFC2FA9E5B2E001900D928A9522
:1010B000E1F7DF91CF910895B0E0A0E0E2E6F8E03B
:1010C0000C946921F82EE92ED62EC72E8A01809124
:1010D0001402AA24A394B12C8A3018F48AE0A82E12
:1010E000B12CC1E0D0E06D2D7C2D8F2D9E2DF8010F
:1010F0000995811104C02196AC16BD062CF4CDB71C
:10110000DEB7EAE00C948521CC9F9001CD9F300D95
:10111000300D112490E080E045E34A95F1F700009E
:10112000019682179307C1F7DECF8091FE018111EE
:1011300010C08091D80080618093D8008AE18A95A0
:10114000F1F700C08091D90080FF0AC081E0809350
:10115000FE0181E09091FE01913009F080E0089558
:1011600082E08093FE010E943E0210926302F1CF62
:101170000E949508882359F0E0914A02F0914B02B1
:10118000309729F00190F081E02D0995089580E0D5
:101190000895CF93DF93C7E6D1E060E0CE010E94CF
:1011A000DB212196C11584E0D807B9F7DF91CF91F3
:1011B00008951F93CF93DF93962F122F632F8430C0
:1011C000D8F49830C8F44530B8F4C42FD0E0CC0F30
:1011D000DD1F2AE0929FC00DD11D112490E5899F4B
:1011E000C00DD11D1124CE0187960E94DB21612FF5
:1011F000CE0188960E94DB21DF91CF911F91089547
:10120000AF92BF92CF92DF92FF920F931F93CF9333
:10121000DF93B12CA12C00E0650110E013C0FE01AA
:10122000259134914F2D612F802F0E94D90822964D
:10123000F39485E0F812F3CF85E0C80ED11C1F5F50
:10124000183039F0E601CC0FDD1FC75CDD4FF12C03
:10125000E6CF0F5F88E2A80EB11C0430E9F6DF91FB
:10126000CF911F910F91FF90DF90CF90BF90AF90E3
:101270000895CF93C82F6FEF811162E283E290E06F
:101280000E94DB216FEFC11168E084E290E00E94D0
:10129000DB216FEFC11161E285E290E00E94DB216A
:1012A000CF91089580E00E94390960E086E290E0E5
:1012B0000E94DB210E9400090E94C90881E00E946F
:1012C000390908950F931F93CF93DF93843030F53E
:1012D000683020F5453010F5C42FD0E0CC0FDD1F6D
:1012E0002AE0629FC00DD11D112430E5839FC00DFF
:1012F000D11D1124CE0187960E94CD21082F10E028
:10130000102F0027CE0188960E94CD219801282B0E
:10131000C901DF91CF911F910F91089590E080E076
:10132000F8CF462F672F843038F4783028F44530D2
:1013300018F40E946209089580E090E00895B0E0FA
:10134000A0E0E5EAF9E00C946C217C0100917002C8
:101350008091F301082BC7E0D0E010E0DC2EC8013B
:101360000C2E02C0959587950A94E2F780FD09C07E
:101370002197A0F7D12C8D2DCDB7DEB7E7E00C94E7
:101380008821B7018C2F0E9491090E94D1050197F5
:1013900079F3F1CFCF93DF93D82FC92F0E949F0904
:1013A0006D2F7C2F0E9491090E94D105DF91CF9172
:1013B0000895FC01808191810E94CA09282F92958D
:1013C0009F70963091F060F4925F9F70923030F48D
:1013D00081E0203F81F030F4283E30F080E0089535
:1013E0009A5FF3CF243FD1F7089581E0283EE0F3E0
:1013F000213FA1F7F9CF089583E290E00E94CD212B
:10140000823289F484E290E00E94CD21883059F440
:1014100085E290E00E94CD2191E0813209F090E0D8
:10142000892F8170089580E0FCCFCF9384E090E015
:101430000E94CD21C82F82E290E00E94CD21982FFA
:101440008C2FCF9108958091F1019091F001892B1B
:10145000809394019091F201992391F0892B8093CC
:10146000940120E086E991E0FC0130810196311180
:101470002F5F31E08C399307B9F721110E9457078C
:1014800048E050E068EE71E084E991E00E940F22AC
:10149000892BA9F088E0E4E9F1E0A8EEB1E0019041
:1014A0000D928A95E1F7E0914A02F0914B02309754
:1014B00031F00280F381E02D84E991E009950895EF
:1014C00090E080E00E943B0490E080E00E942504D0
:1014D0001092F0010E94230A86E0E2E4F2E0DF01CC
:1014E0001D928A95E9F710923C0210923B021092ED
:1014F0003D020E9451040895809370020E94600A88
:10150000089580917002982F9670963021F488602B
:101510000E947C0A0895877FFBCF21E030E001C064
:10152000220F8A95EAF720958091700282230E940B
:101530007C0A08959091E701809589238093E701C3
:10154000282F277091F4282F082E000C330B9217A8
:10155000130659F09091240292FF07C08595859556
:1015600085950E948D0A1092E7010895CF93C0914E
:101570002402C2FB992790F9981791F080FBC2F9D9
:10158000C09324026091230284E090E00E94DB215A
:101590006C2F82E290E00E94DB2182E00E949A0A96
:1015A000CF91089521E030E001C0220F8A95EAF73B
:1015B00080917002822B0E947C0A08958093F3012F
:1015C0000E94600A0895882341F080959091F0016F
:1015D00089238093F0010E94230A0895882339F01B
:1015E0009091F001892B8093F0010E94230A0895C5
:1015F000882321F00E945D070E94230A0895882312
:1016000039F09091F101892B8093F1010E94230A16
:1016100008958823C9F19CEF980F913A78F4E6E990
:10162000F1E09191891303C0DF0111971C9291E0C1
:10163000EC39F907B1F70E94230A089590E2980F58
:10164000983050F4877091E001C0990F8A95EAF7BD
:10165000892F0E945D07EFCF9BE5980F933028F408
:1016600090E080E00E943B04089598E5980F973140
:1016700028F490E080E00E9425040895803F20F047
:101680000E9477040E9451040895CF93C82F8823A5
:10169000A9F08CEF8C0F813A00F5E6E9F1E0DF016B
:1016A0008D91C81769F021E0AC39B207C9F76C2FEA
:1016B00084E991E00E940B040E94230ACF910895CF
:1016C0008191C81303C0DF0111971C9231E0EC39FE
:1016D000F307B1F70E94230AEACF80E28C0F88302B
:1016E00068F4C77021E030E001C0220FCA95EAF724
:1016F0008091F101822B8093F101DECF8BE58C0F7D
:10170000833038F42C2F2452330BC9010E943B0440
:10171000D5CFE8E5EC0FE73150F4F0E0EE0FFF1F16
:10172000EE5AFE4F808191810E942504C7CFC03FB1
:1017300028F28C2F0E9432050E945104BFCF0F93D4
:101740001F93CF93C82F10E000E0893311F400E518
:1017500010E08C2F0E94450B0115110539F48C2FD8
:101760000E94090BCF911F910F9108958FE99FE07F
:101770000197F1F700C0000001501109EDCFFF9271
:101780000F931F93CF93DF93C62FD42F122FFC01FB
:1017900082818823A9F060936F020E94FF039093D7
:1017A0006E0280936D02C77081E001C0880FCA95F8
:1017B000EAF70E94FF0ACDB7DEB7E5E00C948A2174
:1017C00080916F02681330C080916D0290916E021B
:1017D0000E94D303863E910538F500E20D0FCD1728
:1017E000A9F0C770FF24F3948F2D01C0880FCA950C
:1017F000EAF70E94F80A083048F48D2F877001C07C
:10180000FF0C8A95EAF78F2D0E94FF0A812F0E9414
:101810009F0B083080F6D77081E001C0880FDA9501
:10182000EAF70E94F80AC7CFC77081E001C0880FAD
:10183000CA95EAF7F6CFB0E0A0E0E1E2FCE00C9454
:101840006C21E82FF0E0E754FE4FD490282F269526
:101850002695269530E0F901E755FE4F04918770F3
:1018600010E0082E02C0159507950A94E2F7017062
:101870001127F901E756FE4FE490F12C082E02C023
:10188000F594E7940A94E2F791E0E922FF24F90144
:10189000E757FE4FC491D0E002C0D595C7958A9511
:1018A000E2F7C170DD270115110519F081EE0E94E4
:1018B000450BE114F10419F086EE0E94450B8D2DC5
:1018C0000E949F0BE114F10419F086EE0E94090BAF
:1018D0000115110519F081EE0E94090BCD2B19F0AD
:1018E0008CE20E949F0BCDB7DEB7E7E00C94882115
:1018F0001092F101E6E9F1E086E0DF011D928A95A0
:10190000E9F70E94600A0895AAE2B0E0EAE8FCE084
:101910000C94702185E692E0FC0101962091F10083
:10192000208322E08D369207B9F7809166028930D4
:1019300009F456C0C8F4823009F4B3C0833009F406
:1019400082C0813071F18091E80083FF85C280916F
:101950006502909166029A3008F07EC2E92FF0E0AD
:10196000E95DFD4D0C94AC218A3009F489C08B30BF
:1019700051F780916502813231F78091690290912F
:101980006A02892B01F78091E800877F8093E80045
:101990000E94B80280916702809339010E94780CFE
:1019A000D2CF80916502813A71F68091E800877FFD
:1019B0008093E8008091690290916A02892B61F41A
:1019C00068E089E592E070E00E9464038091E8009D
:1019D0008B778093E800B7CF60E090E080E0F3CFB2
:1019E00080916502813209F0AECF809169029091B9
:1019F0006A028D7F892B09F0A6CF8091E800877F4E
:101A00008093E8008091E80082FF18C09091F30075
:101A10008091F200029731F48091F100813011F051
:101A2000863021F48091F100809358028091E80083
:101A30008B778093E8000E94B80285CF8091630283
:101A40008111E0CF80CF80916502813A09F07BCF90
:101A50008091690290916A02892B09F074CF80917C
:101A6000E800877F8093E8008091E80080FFFCCF4A
:101A7000809139018093F1008091E8008E77D9CF71
:101A800080916502813209F05ECF8091E800877F06
:101A90008093E8000E94B802809168028093570208
:101AA00052CF80916502813A09F04DCF8091E800D4
:101AB000877F8093E8008091E80080FFFCCF8091D1
:101AC0005702D8CF803899F0823809F0C5C180918B
:101AD00069028F70873008F0BFC18093E900809160
:101AE000EB0085FB882780F91092E90006C0809101
:101AF000610290916202911182609091E800977F5B
:101B00009093E8008093F1001092F1008091E8003A
:101B10008E779EC1882309F48CC1823009F09CC164
:101B20008091670281118FC1809169028F702FEFC0
:101B3000280F263008F090C18093E9002091EB0037
:101B400020FF81C1933031F48091EB00806280935B
:101B5000EB0079C19091EB0090619093EB0021E054
:101B600030E001C0220F8A95EAF72093EA00109234
:101B7000EA008091EB008860EACF81116DC110917D
:101B800067021F778091E3008078812B8093E300C8
:101B90008091E800877F8093E8000E94B8028091DE
:101BA000E80080FFFCCF8091E30080688093E30031
:101BB00082E0111183E0809363024EC1805882302D
:101BC00008F04AC140916702509168024C3D83E0A1
:101BD0005807A1F583E08A838AE289834FB7F89496
:101BE000DE01139620E03EE051E2E32FF0E0509357
:101BF0005700E49120FF03C0E295EF703F5FEF7064
:101C00008E2F90E0EA30C0F0C7968D939D932F5FA2
:101C1000243159F74FBF8091E800877F8093E80017
:101C20006AE270E0CE0101960E9464038091E800B0
:101C30008B778093E80010C1C096E7CF809169024E
:101C400090916A02252F33272330310509F44AC0C9
:101C500078F52130310509F479C08BE590E0E9E7AA
:101C6000F3E02230310509F0F7C02091E800277F2A
:101C70002093E80020916B0230916C028217930749
:101C800008F49C0140E02115310509F064C04111C0
:101C900062C08091E80082FDC9CF809163028823F1
:101CA00029F2853019F28091E80083FFF2CFBECF90
:101CB0002132310509F43BC02232310509F0CCC094
:101CC0008330910508F0C8C0FC01EE0FFF1FEB57F1
:101CD000FE4F0190F081E02D8E579E4FDC018C91DC
:101CE00090E011C0CA019927413089F082309105F6
:101CF000B1F0892B09F0B0C0ECE0F4E0E4918E2F54
:101D000090E0ECE0F4E0009709F4A6C0AECFE2E08A
:101D1000F4E0E4918E2F90E0E2E0F4E0F4CFE6EE20
:101D2000F3E0E4918E2F90E0E6EEF3E0ECCF833029
:101D3000910508F091C0880F991FFC01E557FE4FEF
:101D40000190F081E02D89E090E08FCF82E190E07A
:101D5000E4EDF3E08ACF80916302882309F466CF33
:101D6000853009F463CF8091E80083FD5FCF8091D7
:101D7000E80082FD8ECF8091E80080FF84CF9091B3
:101D8000F3008091F2002115310519F0883091059A
:101D900050F041E0089709F040E08091E8008E772C
:101DA0008093E80070CF44914093F1003196215028
:101DB00031090196E8CF803809F04EC08091E800E3
:101DC000877F8093E800809164028093F1009ECE2B
:101DD000811142C0109167021230F0F58091E80045
:101DE000877F8093E800109364020E94B802112359
:101DF00011F084E005C08091E30087FDFACF81E017
:101E00008093630242E061EC81E00E94D70242E2EB
:101E100061EC84E00E94D70242E261EC82E00E9421
:101E2000D70242E260EC83E00E94D7028091630215
:101E300013C080916702813079F481E0933009F01A
:101E400080E0809362021092E9008091E800877F31
:101E50008093E8000E94B8028091E80083FF0AC0E6
:101E60008091E800877F8093E8008091EB0080629A
:101E70008093EB00AA96E3E00C948C210E94780CEE
:101E80002FEF84E39CE0215080409040E1F700C0B8
:101E9000000088E19AE00FB6F894A895809360005E
:101EA0000FBE90936000FFCFA8E0B0E0EAE5FFE04E
:101EB0000C94702140911002509111026091120215
:101EC000709113022FB7F89480914F0290915002B5
:101ED000A0915102B09152022FBF841B950BA60B0B
:101EE000B70B11E084369105A105B105A8F10E9458
:101EF00095088823B1F10E94E203462F572FBC01B9
:101F00004E5F5F4F6F4F7F4F49835A836B837C8354
:101F10008091110190911201895F9D4F20911001D4
:101F2000422F50E0253010F044E050E0BE016F5FDA
:101F30007F4F0E941C2282E090E00E94EB20182F2D
:101F4000882351F00E94E203609310027093110203
:101F50008093120290931302812F2896E3E00C9451
:101F60008C210E94E2036D837E838F83988740914A
:101F700015025091160260911702709118028D811E
:101F80009E81AF81B885480F591F6A1F7B1FB8CF4C
:101F9000EF92FF921F93CF93DF9300D000D00F9268
:101FA000CDB7DEB77B0190E080E00E94EB20182FD8
:101FB000882309F487C080910301482F50E08823CB
:101FC00011F041E050E06091040170910501695FFA
:101FD0007D4FCE0105960E941C2240910302509134
:101FE000040260910502709106022FB7F894809167
:101FF0004F0290915002A0915102B09152022FBF16
:10200000841B950BA60BB70B84369105A105B10572
:1020100040F488E092E00E9427029D81891709F42C
:1020200051C081E090E00E94EB2081111AC010E0C5
:102030008091FF0190910002A0910102B0910202F3
:10204000F70180839183A283B383812F0F900F9038
:102050000F900F900F90DF91CF911F91FF90EF9015
:10206000089580910B01482F50E0853010F044E036
:1020700050E060910C0170910D01695F7D4FCE01C0
:1020800001960E941C2288E092E00E9427029D8116
:102090008913CDCF0E94E203609303027093040280
:1020A000809305029093060289819A81AB81BC815D
:1020B0008093FF0190930002A0930102B09302026B
:1020C00011E0B6CF8091080290910902A0910A0216
:1020D000B0910B0289839A83AB83BC831111E4CF47
:1020E000A7CFA0E1B0E0E7E7F0E10C946B211A8202
:1020F0001982FE01339686E0DF011D928A95E9F789
:10210000329748E151E0BE016B5F7F4F8F016A015A
:10211000EE24E394F12C30E0D6012D916D012F3F98
:1021200091F0822F82958F7090E0DC0190968C91D7
:1021300090E02F7002C0959587952A95E2F780FD73
:102140004FC08E2DF82A3F5FEE0C353029F7F19203
:102150004B5F5F4F6E177F07D1F648E050E0B80144
:1021600089E192E00E940F227C01892B41F088E0F6
:10217000F801A9E1B2E001900D928A95E1F7109182
:102180002202E114F10471F181E08093F6010E94D2
:10219000FF039093F5018093F4018091F4019091F5
:1021A000F5010E94D303059790F0E12FF0E0ED5C7C
:1021B000FD4F80911902808380911A028183809162
:1021C0001B02828380911C0283831092F60181E0BE
:1021D00090E0E114F10451F06096E8E00C9487215E
:1021E00080E0B0CF8091F6018111D7CF0E94950891
:1021F000F82EE0912202882309F46CC01A86198611
:102200001C861B860E2F10E00D5C1D4F8091140262
:102210008A3050F548EC5FE0BE01675F7F4FC80130
:102220000E945C08882379F144E55FE0BE01675FA6
:102230007F4FC8010E945C08882329F11092140284
:102240008091210290E044E050E0BE01675F7F4F43
:102250008D5C9D4F0E940F2221E02093FD01892B70
:1022600059F5F12C8F2DB8CF8091F7019091F8019D
:102270000E94D303843F914068F68091FD01811153
:1022800012C080E0A9CF809114028F3F29F08F5FA8
:10229000809314028A30A0F20E94FF039093F80109
:1022A0008093F701EACFFE01399684E0DF011D92A9
:1022B0008A95E9F71092FD01E0912102F0E0ED5CD2
:1022C000FD4F89859A85AB85BC8580839183A283E8
:1022D000B383C8CFF0E0ED5CFD4F80819181A28196
:1022E000B3818093080290930902A0930A02B093ED
:1022F0000B0288E092E00E94270280930702C090C0
:102300000C02D0900D02E0900E02F0900F0280912E
:10231000F9019091FA01A091FB01B091FC01C8165E
:10232000D906EA06FB0609F4ACCFC092F901D092B7
:10233000FA01E092FB01F092FC010E9495088111E4
:10234000A0CF0E94E203C61AD70AE80AF90AC0928F
:102350001502D0921602E0921702F092180291CF65
:1023600068EE7EEF90E080E00E94F92160E082E07C
:1023700090E00E94DB2160E083E090E00E94DB219E
:102380001092F30160E084E090E00E94DB2164E0C1
:1023900082E290E00E94DB2160E085E090E00E9414
:1023A000DB2160E086E090E00E94DB216FEF87E0B8
:1023B00090E00E94DB2140E050E0BA0188E090E02C
:1023C0000E94ED2160E08DE090E00E94DB2140E082
:1023D00050E0BA0188E190E00E94ED2160E087E1E1
:1023E00090E00E94DB2140E050E0BA018CE190E0F7
:1023F0000E94ED2170E060E080E290E00E94F9210F
:1024000040E050E0BA0188E190E00E94ED2180E0D8
:102410000E9439090E94520940E050E0BA018FE061
:1024200090E00E94ED2140E050E0BA0183E190E0AD
:102430000E94ED210895A5E0B0E0E1E2F2E10C9404
:1024400066217C01FC0183819481892B31F080819C
:10245000918189238F3F09F017C52596EDE00C94F3
:1024600082210E949F09182F682F89819A810E94DA
:10247000A30769817A81812F0E9491098C01F7015C
:102480008281882309F4F5C4C80182519F45409791
:1024900008F0A6C48FEF93E00E94CD21811130C0D7
:1024A000025167E6C62EDD24D39401113BC0809112
:1024B0003A0190913B01A0913C01B0913D0189838B
:1024C0009A83AB83BC83BB24B3945AE0A52E8601C8
:1024D0000F5F1F4FC6010E94CD2189831A82882376
:1024E00079F09FEF980F933058F58A83B98232E0E4
:1024F000C30ED11CC8010E94CD218B83811121C044
:102500008091E701877009F4A8CFF70182818823C1
:1025100009F4A3CF8091240282FF9FCF82E00E9422
:102520009A0A9BCFC114F4E0DF0651F3C6010E9462
:10253000CD21811101C001502FEFC21AD20AB5CFAF
:1025400068018E010F5F1F4FF8018081882309F415
:10255000BECF813009F041C091818281913039F440
:102560000E5F1F4F0E949F0B0F5F1F4FEDCF9230EA
:1025700029F40E5F1F4F0E94450BF6CF933029F4CC
:102580000E5F1F4F0E94090BEFCF943019F00F5FC1
:102590001F4FEACF0E5F1F4F30E020E0B8016F5FA2
:1025A0007F4FF80141818053990B8A30910550F09B
:1025B00021503109C8F28FE99FE00197F1F700C07F
:1025C0000000F6CFA29EF001A39EF00D11249C0105
:1025D0002E0F3F1F842F8B01E1CF0E941B0CC4CF15
:1025E00081E00E94D20A0E94810A8ACF81E00E9483
:1025F0008D0AF9CF82E0F5CF843009F45CC0EFE3B7
:10260000FCE93197F1F700C000005801E894B7F8F1
:102610003CE0C32ED12C4AE0842E912CC5010C2C19
:1026200002C0969587950A94E2F78F7090912502E3
:10263000923009F047C08A3008F042C090E0099615
:10264000B4010E949821875A0E949F0BF4E0CF1A90
:10265000D1082CEFC2162FEFD20601F78091250288
:10266000823009F483C0C0F5811174C082EE0E94EB
:10267000090B35C083E00E94EE0A88E10E94450BF9
:1026800088E10E94090B83E00E94E30AB8CF8091A1
:102690009D01811103C083E50E949F0B82EE0E9481
:1026A000450B8FE39CE90197F1F700C0000087E537
:1026B0000E949F0BA4CF86EE0E949F0B88E1F8CF6B
:1026C0008650C2CF96EF980F963020F0805D0E9422
:1026D0001B0CBCCF895AFBCF843009F450C08091C9
:1026E0009C018093F101F7018281882309F4DDC305
:1026F00010926F020136FDE51F0761F008F098C0E7
:1027000006313CE5130708F076C002308CE5180767
:1027100008F4F5C30E94150A9093240280932302C3
:102720000631ECE51E0708F09BC00230FCE51F07F0
:1027300008F089C0609123021091240284E090E0A7
:102740000E94DB21612F82E290E00E94DB210E9447
:10275000780CD6CE8CE20E949F0B80919E0188233C
:1027600009F4BDCF89E30E949F0BB9CF82EE0E948E
:10277000090B80919D018111B2CF83E5F4CF88E2EE
:10278000F2CF033F3CE5130771F1B0F4083D9CE53F
:10279000190729F128E241E0093DECE51E0709F19E
:1027A00026E241EE61EE073DFCE51F0709F09BCFF5
:1027B000C7010E94BF0BA4CE053F2CE51207B9F05C
:1027C00027E245EE66EE063F3CE5130789F327E274
:1027D00045EE64EE043F8CE5180751F384CF27E201
:1027E00045EE65EEE5CF26E241EE60EEE1CF26E272
:1027F00041EE62EEDDCFC8018A5F9C45099708F47F
:1028000089CF0631FCE51F0709F066C38091F1010D
:102810008A7A91E009F490E090939F0169E2811136
:1028200065E384E991E00E940B040E94230A68CECC
:10283000053A9DE5190709F46DCF073A1D4509F0E2
:1028400062C30E943E0FF801E350FC4580912302D1
:102850008160E331F10538F5EF5CFD4D0C94AC215E
:1028600003302DE5120778F40A3F3CE5130708F41E
:1028700061CFF801EB5FFC45E830F10518F5EC5B42
:10288000FD4D0C94AC2101368DE5180709F497C075
:1028900090912302892F8E7F90FF8160053A9DE5FC
:1028A000190709F047CF8093230244CF8091230278
:1028B0008260F9CF809123028460F5CF809123025A
:1028C0008860F1CF8091240281608093240232CF0E
:1028D000809124028260F9CF809123028061E3CF4E
:1028E000809123028062DFCF809123028064DBCF5E
:1028F0000E94780C809123028068D5CF80912302BA
:102900008C60D1CF809124028360DFCF809123023D
:102910008E7FC9CF809123028D7FC5CF8091230206
:102920008B7FC1CF80912302877FBDCF809124020E
:102930008E7FCBCF809124028D7FC7CF80912302E1
:102940008F7EB1CF809123028F7DADCF8091230206
:102950008F7BA9CF0E94780C809123028F77A3CF21
:1029600080912302837F9FCF809124028C7FADCF03
:102970008091230282FB992790F921E0922790FB16
:1029800082F990FB83F98FCF80912402982F909544
:1029900091708E7F892B90FB81F997CF0E94780CE4
:1029A00090912302892F97FB87F980587CCF61E0B3
:1029B0008EE090E00E94DB21BDCE60E0F9CF9091E7
:1029C0002302892F8F7E94FF80616DCF85E376C2CD
:1029D0000C358DE5180709F030CF8091240282FB79
:1029E000882780F991E089270E94B60A8CC20E944C
:1029F000780CEFEFF4E32CE0E150F0402040E1F7F9
:102A000000C000000E94C2030E94B0111ACFC6018C
:102A10000E946F07182F86C2F12FFF70CF2E107FF4
:102A200019F0C29490EFC922802FDD20B9F0CC209C
:102A300069F090E2900F983010F0011109C0809178
:102A4000F101C82AC092F1010E94230A802F42C0DE
:102A50008091F001C82AC092F001F6CF0E94090BC4
:102A6000CC20D1F1005E083010F0711004C08C2D24
:102A70000E945D0706C0C0948091F001C822C092F8
:102A8000F0010E94230A28C0212F2F70C22E107F30
:102A9000103219F0C29480EFC822772059F031E04B
:102AA000731609F463C0DD2009F46DC0992009F4A0
:102AB00063C0CCCF2091240222FD36C0DD2071F10D
:102AC000CC2039F08091F101C82AC092F1010E9416
:102AD000230A80E00E94450B28E0A21AB10834E0E6
:102AE000A316B10410F40E94B808882009F4B5CCEC
:102AF0008091E70180FDB1CCF70112828595859523
:102B000085950E94D20AC7010E941B128091E7019D
:102B10008595859585950E948D0A9FCC80E00E94C1
:102B2000090BCC20C9F2A3CFDD2099F09091F201DE
:102B3000892F8C29911003C00E94FF0ACDCFE1E0BC
:102B40009E12FACF22FFC8CF891731F28093F2018B
:102B5000C3CF911006C00E9457078C2D0E94F80A1F
:102B6000BBCFF1E09F1609F4B7CFF5CFDD2031F0F0
:102B700025E0291508F4B0CF8C2DDECF34E03915CF
:102B800008F4AACFEACF992041F3093349F48FEF33
:102B900097EEE3E081509040E040E1F700C0000094
:102BA000802F0E94090B98CF812F86958695837080
:102BB00061F0813009F090CFC8019370D11002C04C
:102BC00090E080E00E94250487CFC8019370D11067
:102BD00002C090E080E00E943B047ECF802FDD2089
:102BE00029F00E9432050E94510476CF0E9477049A
:102BF000FACF812F837091F5D1106ECF402F42957F
:102C000046954770440F440F802F8F70042E01C0EB
:102C1000880F0A94EAF7202F207104FF07C02FE0E5
:102C200030E001C0220F4A95EAF7209516951695D7
:102C30001370123071F0133051F03091F3011130F4
:102C400029F0822B83230E94DE0A46CF832B822B1E
:102C5000FACF282B8091F3018227F5CF8695DD20CE
:102C600011F0812F8170882309F436CF402F4295CF
:102C700046954770440F440F802F8F70042E01C07B
:102C8000880F0A94EAF7202F207104FF07C02FE075
:102C900030E001C0220F4A95EAF720951695169567
:102CA0001370123071F0133051F030917002113006
:102CB00029F0822B83230E947C0A0ECF832B822B48
:102CC000FACF282B809170028227F5CF1F70DD206C
:102CD00029F0812F0E94D20A802F2ECF802F0E94B0
:102CE000F80A812F0E948D0AF7CE802FF2EF7F160F
:102CF000B1F1F71570F020EF7216D1F031EF7316C5
:102D000091F0DD2009F45CC09110A0CE812F8F716D
:102D10002AC093EF791651F1E4EF7E12F2CF809141
:102D2000240282FD2FC0812F8F71DD20D9F21BC0BC
:102D3000DD2081F0F4E0F91508F4CECE1F7181E0BA
:102D400090E0012E01C0880F0A94EAF7909170027A
:102D50008927B1CF25E0291508F4BECEEFCF812F0A
:102D60008F71D110BFCF0E94D20AB6CE80E0DD2095
:102D700009F4A1CF1F7181E0012E01C0880F0A94D0
:102D8000EAF799CFDD2089F01F71812F0E94D20AC6
:102D90008091240282FF07C038E0139FC0011124F4
:102DA00083608093E701812FDECF81E00E949A0A41
:102DB00081E0891508F090CE82E00E949A0A8CCEBC
:102DC000992059F0893309F0EBCE9FEFE7EEF3E05D
:102DD0009150E040F040E1F7E1CE812F8F7182CF3A
:102DE0000031FFE51F0709F4FBCB01312FE5120786
:102DF00009F400CCC801815E9C45059740F46FE161
:102E0000600F609325028CE090E00E94DB2117FFA9
:102E1000B8CCF7018281882309F465CC0E94B808F8
:102E20008695817080939E010E94B808817080937E
:102E30009D0180912502813039F480919E01882383
:102E400019F089E30E949F0B8091F10180939C010E
:102E50001092F1011092F00180912502823009F464
:102E600016CC08F0C9CB811105CC82EE0E94450B2F
:102E7000C6CB00313FE5130709F4B8CB01318FE52C
:102E8000180729F682E0B3CB85E0DE0111960190A8
:102E90000D928A95E1F7F701228189819A812111AA
:102EA000E0CA0E946F07182FE4CA06312CE512070A
:102EB00051F580919F01811189CD89E2E6E9F1E028
:102EC0002CE931E09191891303C0DF0111971C9225
:102ED0002E173F07B9F7A9CC80E00B353DE5130766
:102EE00009F482CD08F074CD0E3DFCE51F0709F40E
:102EF0008BCD81E00A352DE5120709F475CD01155A
:102F00001C4509F474CDF7018281C080D1808823EB
:102F100009F47DCDC6010E949F09182F682FC601B4
:102F20000E94A307B601812F0E9491090E94D1053A
:102F30008C01782EF701D280958092942FE0922216
:102F40008091E7018770C1F08D2CDD20B1F0812FD9
:102F5000807F803421F080E2800F883068F080919B
:102F6000240282FF09C082E00E949A0A8091E70150
:102F70008770882483948111812C812F82958F7092
:102F8000A82EB12C8C3008F0A7CDF501E45BFD4DE7
:102F90000C94AC211F93CF93DF938091B401807F79
:102FA00009F049C08091B101882309F444C080919F
:102FB000E601D091B5016091AF017091B001A0918F
:102FC000B201B091B301C62FC72316E0D81799F10B
:102FD00090E0109711F0CF3F19F401968770F6CF6B
:102FE000189F9001199F300D1124F901EA54FE4FEA
:102FF00041814713F2CF40814613EFCF4281411107
:10300000ECCF438154814A1B5B0B463E510528F7A8
:103010008091B4018F7080618093B401F901E5540F
:10302000FE4F80818F70806180838FEA91E00E94E3
:103030001B120E946507DF91CF911F910895ABE0AD
:10304000B0E0E5E2F8E10C9469218C0185E0F8013B
:10305000DE01179601900D928A95E1F7F801E28062
:103060008FEAA82E81E0B82E6091B2017091B30171
:103070006115710509F40EC19091AF014091B00145
:10308000842F89238F3F09F405C120813181C380BA
:10309000D480F090B101F601E61BF70BFF2009F494
:1030A000C4C08091B401582F507FE63EF10508F06E
:1030B0009FC051116BC0FE2C431314C0921312C059
:1030C000E11010C08F7080618093B401C5010E942F
:1030D0001B128091B401F80185838F2D2B96EAE0B5
:1030E0000C948521C114D10429F0822F83238F3FB2
:1030F00009F0EBC080E0F82FF170DF2EE091E601DF
:103100004091B50156E080FD1CC0EE2031F3809166
:10311000B40181608093B401F12CDFCF8E2F90E059
:103120005E9FF0011124EA54FE4F6181361306C000
:103130006081261303C06281E612E7CFFC0131965D
:10314000E770E413EBCF2F8338878F8198850E9437
:10315000CA09292F22952F70903260F0225F2F70BC
:10316000223078F49F7051F0F8019581907F31F40E
:10317000D12C0AC09F7011F08823D1F3805E883073
:10318000B8F3C8010E941B12FD2CA7CF431306C041
:10319000921304C0F801EE2009F461C0C8010E9436
:1031A000D909882309F1EE20F9F08091B401803229
:1031B00070F02091AF013091B0013A8329831B82D6
:1031C000DD82CC828E83CE0101960E941B1286E0A6
:1031D000F801AFEAB1E001900D928A95E1F70E9403
:1031E000CA17FF24F39479CFC8010E941B12F9CFAC
:1031F00051110AC08FEA91E00E941B1286E0F5018E
:1032000011928A95E9F788CF4313C8CF9213C6CF9E
:10321000E110C4CFF8018583C8010E941B1286E02B
:10322000F50111928A95E9F758CFE63EF105B8F716
:10323000FE2CEE20C9F243131FC092131DC08091D3
:10324000B40180FD10C0982F907F69F0F80185834C
:10325000903F31F0982F907F905F8F70892B8583FE
:10326000C8010E941B1286E0F801AFEAB1E00190AC
:103270000D928A95E1F731CFC8010E94D9098111D9
:10328000A6CF8091B40181608093B401C8010E94EF
:103290001B1223CFEE2009F4A7CFC8010E94D90941
:1032A000F82E882309F4A0CF86E0F801AFEAB1E058
:1032B00001900D928A95E1F78091AF019091B00154
:1032C0000E94CA090E94CA1708CF81E08E2513CF39
:1032D000A7E1B0E0EEE6F9E10C9470214B8B5C8B3A
:1032E0006D8B7E8B8F8B61111092F0011A8A2C8965
:1032F0008E899F893B893D872E876F87998B888B25
:1033000086E0FE013D96DE01179601900D928A95AA
:10331000E1F7CE0107960E941F18882359F016E0A6
:103320008091E6019091B501891349C06796E3E069
:103330000C948C2186E0FE013796DE0111960190F7
:103340000D928A95E1F74A855B854115510539F360
:103350007F816885862F87238F3F09F32091B501F0
:1033600030E0C901019687709927E091E601E817DE
:10337000190671F40E94780C1092B5011092E601C2
:1033800086E0EFEAF1E0DF011D928A95E9F7C7CF09
:1033900079836A835D834C8396E0929FD001939FEB
:1033A000B00D1124AA54BE4FFE01319601900D922A
:1033B0009A95E1F78093B5010E946507B0CF819F90
:1033C000C00111248A549E4F0E941F18882309F4BB
:1033D000ADCF8091E60190E00196877099278093A8
:1033E000E6019ECF1F920F920FB60F9211242F93DA
:1033F0003F934F935F936F937F938F939F93AF937D
:10340000BF93CF93DF93EF93FF93D091E900DF70E9
:103410008091EC00C82FC17080FDC0E81092E900D7
:103420008091F000877F8093F00078940E94840C54
:103430001092E9008091F00088608093F000CD2B1D
:10344000CF70C093E900FF91EF91DF91CF91BF91D1
:10345000AF919F918F917F916F915F914F913F912C
:103460002F910F900FBE0F901F9018951F920F92E3
:103470000FB60F9211242F933F934F935F936F9347
:103480007F938F939F93AF93BF93EF93FF9380911D
:10349000E10082FF09C08091E20082FF05C08091B7
:1034A000E1008B7F8093E1008091DA0080FF24C0EF
:1034B0008091D80080FF20C08091DA008E7F8093B9
:1034C000DA008091D90080FF9BC080E189BD82E154
:1034D00089BD09B400FEFDCF81E080936302809135
:1034E0005602811109C00E943E020E940903809188
:1034F000E20084608093E2008091E10080FF17C0C9
:103500008091E20080FF13C08091E2008E7F809363
:10351000E2008091E20080618093E2008091D80017
:1035200080628093D80019BC85E08093630280910B
:10353000E10084FF29C08091E20084FF25C080E182
:1035400089BD82E189BD09B400FEFDCF8091D8001C
:103550008F7D8093D8008091E1008F7E8093E10081
:103560008091E2008F7E8093E2008091E200816092
:103570008093E20080916402882309F447C084E0CC
:1035800080936302809163028091E10083FF27C0F2
:103590008091E20083FF23C08091E100877F8093C8
:1035A000E10082E080936302109264028091E10066
:1035B0008E7F8093E1008091E2008E7F8093E20015
:1035C0008091E20080618093E20042E060E080E070
:1035D0000E94D7028091F00088608093F000FF91F4
:1035E000EF91BF91AF919F918F917F916F915F917B
:1035F0004F913F912F910F900FBE0F901F901895F4
:1036000019BC109263021092560276CF8091E300AB
:1036100087FD02C081E0B4CF83E0B2CF78941F92DF
:103620001FB61F9211248F939F93AF93BF938091E6
:103630004F0290915002A0915102B0915202019616
:10364000A11DB11D80934F0290935002A09351028F
:10365000B0935202BF91AF919F918F911F901FBE67
:103660001F9018951F921FB61F9211248F939F933E
:10367000AF93BF9380914E02811113C080914F028E
:1036800090915002A0915102B09152024196A11D19
:10369000B11D80934F0290935002A0935102B093BA
:1036A0005202BF91AF919F918F911F901FBE1F90AB
:1036B0001895CDB7DEB7A4970FB6F894DEBF0FBE4E
:1036C000CDBF85B7806885BF85B7806885BF84B763
:1036D000877F84BF0FB6F894A895809160008861B9
:1036E00080936000109260000FBE80E890E00FB6FB
:1036F000F89480936100909361000FBE8CE895E090
:1037000090939301809392010E943E020E940903CC
:103710008091E20084608093E2007894809163025B
:103720008823A1F01091E9001F709091EC00892F7F
:10373000817090FD80E8182B1092E9008091E800DC
:1037400083FD0E94840C1F701093E90082E084BD09
:1037500093E095BD9AEF97BD80936E00109215028D
:103760001092160210921702109218020E94FC0981
:10377000811102C00E9452090E94950880932C0179
:103780000E94950881110E94FE1F80912C018111D9
:1037900026C084E1EEE3F1E0DE01119601900D9286
:1037A0008A95E1F7FE013196A8E1B1E0CE01459698
:1037B00020812C93218111962C93119722811296AE
:1037C0002C931297238113962C931397248114968C
:1037D0002C93149735961596E817F90749F78091B9
:1037E0002C0194E0811190E09093220284E0891BE7
:1037F0008093210228E131E06CE271E001E010E009
:10380000D90150E040E08D918F3F91F0E82FE29593
:10381000EF70F0E0D1A08F70780101C0EE0C8A95B6
:10382000EAF79E2D90959D2191A382A18E2982A3D6
:103830004F5F5F4F4530510531F72B5F3F4F6217A8
:103840007307F1F688E0E3E3F2E0DF01282F1D9231
:103850002A95E9F7E9E1F2E0DF011D928A95E9F79F
:1038600090E080E00E94D521883E9E4F21F40E9486
:10387000FC09811102C00E94B01182E090E00E9418
:10388000CD21809329020E94150A909324028093EF
:1038900023020E947110EFE3FCE93197F1F700C0B9
:1038A00000000E9471100E94950824E0811120E020
:1038B000E22FF0E0ED5CFD4F808190E002C0959535
:1038C00087952A95E2F780FF08C06FEF7FEF90E0C1
:1038D00080E00E94F9210E94C20383E090E00E94F0
:1038E000CD210E94DE0A8CE090E00E94CD2190E084
:1038F000B0E0A0E08093250290932602A0932702D7
:10390000B09328020E949508811102C00E940120F4
:103910008DE291E090934B0280934A0288E1E82E79
:10392000F12C90E4892E2BE3C22E22E0D22E30E13E
:10393000932E8091630212E1853009F46CC10E94DC
:10394000711081110E94E203E3E3F2E0AAE2B2E027
:1039500010E000E0602EA1908D918A1509F46AC1F3
:103960008A25712CBB24B394982F9B2109F45DC147
:103970000E949508882399F079826A82AB2081E0C1
:1039800009F480E08B830E94FF038160782F9D8380
:103990008C8349815A816B818D810E946819F8015D
:1039A000E65DFD4F8081B826B0820E94950886E0D2
:1039B000E2E4F2E0DE01119601900D928A95E1F7C2
:1039C0001092440210924502109246021092470251
:1039D0008B819C81892B09F44AC08091400290918F
:1039E00041020E94D3039C0180913C02882309F488
:1039F000A6C225313105D8F18F3F19F08F5F809332
:103A00003C021B81112359F00E9412059FEF1116F1
:103A10000CF491E0899F802D1124809344021C8135
:103A2000112359F00E9412059FEF11160CF491E03A
:103A3000899F802D112480934502309144023323C5
:103A4000B1F020914502222391F045EB3403C001EF
:103A50001124992309F405C19093440245EB2403F2
:103A600090011124332309F400C1309345028D8164
:103A70009E81892B09F44AC080913E0290913F02B9
:103A80000E94D3039C0180913B02882309F452C217
:103A900021353105D8F18F3F19F08F5F80933B02BC
:103AA0001D81112359F00E94F0049FEF11160CF4B0
:103AB00091E0899F802D1124809346021E8111235D
:103AC00059F00E94F0049FEF11160CF491E0899FC9
:103AD000802D112480934702309146023323B1F0A8
:103AE00020914702222391F045EB3403C0011124B9
:103AF000992309F4BEC09093460245EB240390013C
:103B00001124332309F4B9C03093470246E050E052
:103B1000BE016F5F7F4F82E492E00E940F22892BEB
:103B200061F48091440290914502892B9091460264
:103B3000892B90914702892B11F00E94510486E055
:103B4000FE013196A2E4B2E001900D928A95E1F770
:103B50000E94B808909132028913809332028091BA
:103B60006302843009F0E5CE83E08093E900809120
:103B7000E80082FFDECE8091E80090E085FF06C07D
:103B80000E945D02882309F47CC091E08091E800E6
:103B90008B778093E800992309F4CBCEE981E1503B
:103BA000E33108F0F3C0F0E0E85AFD4D0C94AC218D
:103BB00080916302843009F110924E020FB6F8949E
:103BC000A895E09260000FBE8092600083B7817F6D
:103BD000846083BF83B7816083BF7894889583B7FF
:103BE0008E7F83BF0FB6F894A8958091600088619E
:103BF00080936000109260000FBE80916202882363
:103C000051F00E947110E3E3F2E08191811173C1E0
:103C1000CE16DF06D1F780916302853009F4C8CF54
:103C20000E94780C0E94B8088ACE7394BB0C25E0E1
:103C300072129ACE0F5F1F4F0830110509F08ACE1D
:103C40008FEF89838A831B820E94FF038160782F14
:103C50009D838C8349815A816B818D810E94681973
:103C6000A4CE81E080934402F9CE81E080934502A6
:103C7000FECE81E08093460240CF81E080934702F0
:103C800045CF00E210E0CE0101965C018091E80092
:103C900085FD0AC08091E8008B778093E8000E9440
:103CA0005D02882399F371CF8091F100D5018D9346
:103CB0005D010150110951F768CF1A8289E08B83A9
:103CC00011C08A81823009F42CC1833091F1813096
:103CD00009F05CC00E94E2030E94B2216B837C83E6
:103CE0008D839E8380916302843009F022CE1091EF
:103CF000E9001F709091EC00892F817090FD80E8A1
:103D0000182B82E08093E9008091E80080FF0DC0CD
:103D100050E040E060E270E0CE0101960E948E0229
:103D20008091E8008E778093E8001F701093E9007F
:103D300000CE809133028B83809134028C838091FA
:103D400035028D83809136028E83809137028F8376
:103D500080913802888780913902898780913A0260
:103D60008A87C0CF8A81823089F48B819C81AD8122
:103D7000BE8189A39AA3ABA3BCA3BC01CD010E94C1
:103D8000B22186E290E00E94DB21ACCF8FEF8983E5
:103D9000A9CF4C816B818A810E946209982789276B
:103DA00098279E838D839ECF2D813E8132272327A6
:103DB00032274C816B818A810E94D90893CF0E945F
:103DC000000990CF9A828ECF82E08A8389E977CFEB
:103DD0000A811B81102701271027DE0111963D0162
:103DE000AC80FD01EA0DF11D5F01C80189599E4FAC
:103DF000A614B70409F476CF0939F2E01F0758F486
:103E00000E94CD21D30114968C930F5F1F4FFFEFBB
:103E10006F1A7F0AEACFF3011482F7CF0A811B8160
:103E2000102701271027CE0101963C01AC80A00E7F
:103E3000B12EB11CC80189599E4F0A151B0509F402
:103E400051CF0939A2E01A0720F4F30164810E94DE
:103E5000DB21FFEF6F1A7F0A0F5F1F4FEBCF0E942E
:103E6000C90840CF84E08A833DCF0A811B81102797
:103E700001271027CE0101963C01AC80DC01AA0D80
:103E8000B11D5D01C8018796A614B70409F42ACFB5
:103E90000034B1E01B0750F40E94CD21F30184836C
:103EA0000F5F1F4FBFEF6B1A7B0AECCFD301149645
:103EB0001C92F6CF0A811B81102701271027FE01D3
:103EC00031963F01AC80A00EB12EB11CC80187967F
:103ED000A016B10609F406CF0034F1E01F0728F45C
:103EE000D30114966C910E94DB21BFEF6B1A7B0A01
:103EF0000F5F1F4FEBCF99BC19BD09B400FEFDCF7A
:103F00008091D8008F7D8093D8008091E0008260FE
:103F10008093E0008091E00081FDFCCF0E94780C4E
:103F20007ACE86E290E00E94CD211B821C821D8207
:103F30008E83D8CE2B30310508F0AFCDE7CD2B30B6
:103F4000310508F05BCD93CD8EE14A9B02C08150D4
:103F5000E1F74A9BFECF08955A9880E28A95F1F7DF
:103F60005A9A0895FC013BE03A95F1F798E020E079
:103F700080E031E040E14A95F1F7880F4A9B02C0AA
:103F80008160232742E04A95F1F7000040E14A951D
:103F9000F1F7915079F790E19A95F1F799B132E004
:103FA0003A95F1F7000040E14A95F1F792FB992725
:103FB00090F992272081920F90830895A1E0B0E0BC
:103FC000E4EEFFE10C946D2119828C017C01E60E78
:103FD000F11C0E151F0541F481E09981911180E0DB
:103FE0002196E6E00C9489210E94A41FCE0101963F
:103FF0000E94B21FF80181938F01EBCF529A5A9A17
:10400000089552985A9AEA9AE9E6F0E080818F7C06
:10401000808308956150770B91E001C0990F6A95F4
:10402000EAF720E031E0911108C0222391F05A9A7A
:1040300080E28A95F1F75A980895492F482339F07C
:104040005A9A232740E24A95F1F79695ECCF5A9871
:10405000F9CF5A98EDCFFF920F931F93CF93DF9331
:10406000EC018C01060F111DC017D10729F4CDB743
:10407000DEB7E5E00C948A21F9900E94AC1F68E05D
:104080008F2D0E940A20F0CF1F920F920FB60F9231
:1040900011240F931F932F933F934F935F936F932D
:1040A0007F938F939F93AF93BF93EF93FF93CF93A0
:1040B000DF930F92CDB7DEB719820E94A41FCE0105
:1040C00001960E94B21F282F082F06950695069587
:1040D000982F92959570802F8570980F892F8370F7
:1040E00096959695890F822787709981892B09F07B
:1040F0005CC0043008F059C080E18A95F1F75A9A03
:10410000529A82E08A95F1F700C05A9888E0089F99
:1041100080011124D801A050BF4F1696ED91FC915B
:1041200017973097A9F060918001709181011496E2
:104130002D913C911597260F371F11968D919C91CB
:104140001297680F791F13964C9113978C910995CC
:10415000F801E050FF4F6381662351F02091800108
:104160003091810184819581820F931F0E942B20C1
:104170000E94AC1F80E18A95F1F75A9852985A9A9A
:1041800080E18A95F1F7F801E050FF4F60816623E6
:1041900051F0209180013091810181819281820FC3
:1041A000931F0E94DE1F0E94A41F0F90DF91CF91EA
:1041B000FF91EF91BF91AF919F918F917F916F91FF
:1041C0005F914F913F912F911F910F910F900FBED3
:1041D0000F901F9018950F931F93CF93DF93EC01CF
:1041E00004970CF04CC0F894529A5A9885E08A953E
:1041F000F1F700008C2F869585709C2F9570890FA4
:10420000982F93708695869523E0CC0FDD1F2A9515
:10421000E1F7890F8E01082B0E94AC1F00C068E0F7
:10422000802F0E940A2080E18A95F1F752985A9ACD
:104230004A9B1EC087E090E04A991CC0FE01E050F6
:10424000FF4F63816623F9F0209180013091810155
:1042500084819581820F931F0E94DE1F811113C0FC
:10426000529A5A9A7894DF91CF911F910F910895A5
:1042700000C0DECF019729F4529A5A9A789480E0D0
:10428000F2CF00C0D9CF0E94A41F80E28A95F1F737
:104290005A98529A80E18A95F1F7C050DF4F6881B1
:1042A000662351F0209180013091810189819A81AA
:1042B000820F931F0E942B200E94AC1F789481E0F4
:1042C000D2CF2F923F924F925F926F927F928F92B6
:1042D0009F92AF92BF92CF92DF92EF92FF920F9395
:1042E0001F93CF93DF93CDB7DEB7CA1BDB0B0FB69F
:1042F000F894DEBF0FBECDBF09942A88398848885C
:104300005F846E847D848C849B84AA84B984C884F1
:10431000DF80EE80FD800C811B81AA81B981CE0FE8
:10432000D11D0FB6F894DEBF0FBECDBFED010895CD
:1043300097FB072E16F4009407D077FD09D00E9452
:10434000B92107FC05D03EF4909581959F4F0895C3
:10435000709561957F4F0895EE0FFF1F0590F491C2
:10436000E02D0994692796276927782787277827DA
:104370000895AA1BBB1B51E107C0AA1FBB1FA617AC
:10438000B70710F0A61BB70B881F991F5A95A9F7FE
:1043900080959095BC01CD010895F999FECF92BD0D
:1043A00081BDF89A992780B50895A8E1B0E042E070
:1043B00050E00C940122262FF999FECF92BD81BDC9
:1043C000F89A019700B4021639F01FBA20BD0FB653
:1043D000F894FA9AF99A0FBE08950396272F0E942F
:1043E000DC210E94DB21252F0E94DC21242F0C944C
:1043F000DC210196272F0E94DC210C94DB21DC01BB
:10440000CB01FC01F999FECF06C0F2BDE1BDF89ADF
:10441000319600B40D9241505040B8F70895FB0119
:10442000DC0104C08D910190801921F4415050406D
:10443000C8F7881B990B0895FB01DC0102C00190AD
:104440000D9241505040D8F70895F894FFCF620D77
:104450008A0D2C0F8A0D2C0FBD0DDE0D2C0FDB0EDF
:10446000E80E56145A145E146C14701474147814F4
:104470007E1486148A148E1492149E14A214A61408
:10448000AA14B014CE14B814681496149A14821492
:10449000B414C414D714DD140C150C1544154415AC
:1044A000D415EE156C156C15F9156616751675167E
:1044B0005D1E611EB21EC91ED41EDF1EC61EC61E94
:1044C000C61EC61EC61EE21EE41EE81E0E1F2F1FBD
:0644D000321F351F5A1FC8
:1044D60000000001000000000000000401000000D0
:1044E6000405000000000000C6F7F6F5F43133328B
:1044F600369391909466973435FFFFFF01BF032CE6
:10450600080D0808080308BE030100000000F4F5C2
:10451600F6F7C6933632333197669490913534FF69
:10452600FFFFE200E900EA00B500B600B700CD00E3
:104536008301CC008A019201940121022302240204
:104546002502260227022A02B300B4006F0070007B
:10455600070240227B49012701AC008B03A403C458
:02456600030050
:00000001FF
